:020000040000FA
:020000002E28A8
:040002000034003492
:0A0006000000A00B0328FA30A00050
:10001000A10B0328FA30A1000000080022181228C2
:1000200006141428013086062219182886110800A3
:1000300008308606080089192328A21824280130D0
:10004000A206221524282211861A2C28A21908009B
:100050000230A206A2150800A21108008316031799
:10006000880183160313083089008312031389154E
:100070008316031789018316031320308600831229
:0E0080000313113086001B200E20032043289E
:02400E00D420BC
:02401000FF3E71
:00000001FF
