:020000040000FA
:020000002D28A9
:040002000034003492
:080008000B1C09000608861A12
:100010002A282608003A03191128013A0319192839
:1000200022282208A300A201A70171200130A60006
:100030002A282208A4006D202508A700712002307C
:10004000A6002A28A201A301A401A501A7017120ED
:10005000A6012A280B1079200900831603178801AE
:100060008316031789018316031381138316031361
:100070009516831603130830890083120313860133
:100080007920831603132030860083120313860120
:100090000608831603139616831203130B108B1591
:1000A0008B1783120313A201A301A401A501A601CA
:1000B000A7012608023A0319592883120313891944
:1000C0005928891D6128A20A2208083A0319A201A9
:1000D0002208A70071207920592823082407A500A9
:1000E00008008312031327080F39831203138600B5
:1000F0000800C830A000FF30A100A10B7D28A00B94
:040100007B28080050
:02400E00D420BC
:02401000FF3E71
:00000001FF
